:020000040800F2
:1000000000200020ED8000083D8100083D810008AF
:1000100000000000000000000000000000000000E0
:100020000000000000000000000000003D8100080A
:1000300000000000000000003D810008A35D0008F2
:100040003D810008000000003D8100083D8100085E
:100050003D810008655E0008755E0008855E000849
:10006000000000003D8100083D8100083D8100083E
:100070003D810008755A00088D5A000800000000F4
:10008000955A00080000000000000000AD5A00086A
:1000900000000000C55A0008DD5A0008F57100088C
:1000A0000D7200083D8100083D8100083965000897
:0800B00051650008000000008A
:1000B8000023C25C0133002AFBD1581E70470000A0
:1000C80002B4714649084900095C49008E4402BCE3
:1000D8007047C046002243088B4274D303098B4201
:1000E8005FD3030A8B4244D3030B8B4228D3030C00
:1000F8008B420DD3FF22090212BA030C8B4202D3A2
:100108001212090265D0030B8B4219D300E0090AC9
:10011800C30B8B4201D3CB03C01A5241830B8B42D2
:1001280001D38B03C01A5241430B8B4201D34B03BB
:10013800C01A5241030B8B4201D30B03C01A524120
:10014800C30A8B4201D3CB02C01A5241830A8B42A5
:1001580001D38B02C01A5241430A8B4201D34B028E
:10016800C01A5241030A8B4201D30B02C01A5241F2
:10017800CDD2C3098B4201D3CB01C01A52418309A6
:100188008B4201D38B01C01A524143098B4201D3E0
:100198004B01C01A524103098B4201D30B01C01A0B
:1001A8005241C3088B4201D3CB00C01A5241830885
:1001B8008B4201D38B00C01A524143088B4201D3B2
:1001C8004B00C01A5241411A00D201465241104612
:1001D8007047FFE701B5002000F0F0F802BDC04607
:1001E8000029F7D076E7704703460B437FD40022F7
:1001F80043088B4274D303098B425FD3030A8B42B3
:1002080044D3030B8B4228D3030C8B420DD3FF221C
:10021800090212BA030C8B4202D31212090265D0EA
:10022800030B8B4219D300E0090AC30B8B4201D39D
:10023800CB03C01A5241830B8B4201D38B03C01AE4
:100248005241430B8B4201D34B03C01A5241030B5B
:100258008B4201D30B03C01A5241C30A8B4201D30C
:10026800CB02C01A5241830A8B4201D38B02C01AB7
:100278005241430A8B4201D34B02C01A5241030A2E
:100288008B4201D30B02C01A5241CDD2C3098B4213
:1002980001D3CB01C01A524183098B4201D38B0190
:1002A800C01A524143098B4201D34B01C01A524133
:1002B80003098B4201D30B01C01A5241C3088B4278
:1002C80001D3CB00C01A524183088B4201D38B0063
:1002D800C01A524143088B4201D34B00C01A524105
:1002E800411A00D201465241104670475DE0CA0FDC
:1002F80000D04942031000D34042534000229C469C
:1003080003098B422DD3030A8B4212D3FC228901A5
:1003180012BA030A8B420CD3890192118B4208D37B
:10032800890192118B4204D389013AD0921100E0DD
:100338008909C3098B4201D3CB01C01A52418309F1
:100348008B4201D38B01C01A524143098B4201D31E
:100358004B01C01A524103098B4201D30B01C01A49
:100368005241C3088B4201D3CB00C01A52418308C3
:100378008B4201D38B00C01A5241D9D243088B4219
:1003880001D34B00C01A5241411A00D201466346BC
:1003980052415B10104601D34042002B00D5494220
:1003A800704763465B1000D3404201B5002000F05F
:1003B80005F802BD0029F8D016E770477047C04617
:1003C8009140030090409C46203A93401943524282
:1003D8006346D3401943704710B5064C2378002B69
:1003E80007D1054B002B02D0044800E000BF0123D1
:1003F800237010BD100100200000000014870008C1
:10040800044B10B5002B03D00349044800E000BF9B
:1004180010BDC04600000000140100201487000829
:1004280010B500F04BFB00F054FB00F06FFD01F03D
:10043800AFF900F0DBFB024B187000F0E5FA10BDD5
:1004480020030020F7B50500082007F075FF040019
:10045800290001F01DFAA3881C4E01935A1E9341EE
:10046800DBB200930023E2889A420ED1A07800996B
:1004780000F026FC2078009900F090FC200007F09E
:1004880065FFF7BD0133142BF8D09F00F259002AFD
:10049800F8D10C2007F050FF2388B8510370638807
:1004A80005004370019B5A425341DBB28370C3700D
:1004B80007F016FFA860BB59E28858789A8000991F
:1004C80000F0FEFBBB591878D5E7C0463001002084
:1004D80070B50500042007F02FFF0400290001F083
:1004E800F1F9A178207800F019FD200007F02EFF1F
:1004F80070BD37B505000A2007F01EFF040029006B
:1005080001F0F6F92589E388A2886188208800959A
:1005180001F04DF8200007F019FF37BD70B5050050
:10052800022007F009FF0400290001F0D9F920880A
:1005380000F07CF9200007F009FF70BD70B5164C7B
:10054800164E2368002B1CD007F0CAFE23689D684E
:10055800A8421CD307F0C4FE23689B68C01A23680E
:100568009A8882420DD2D978587800F0A9FB23687E
:100578009978187800F012FC206807F0E7FE00234D
:1005880023600434B442DCD100F002FA70BD07F0F5
:10059800A7FE281AE3E7C0463001002080010020AA
:1005A80070B507F09DFE0B4D2C68A0420ED307F0E6
:1005B80097FE2C68041B084B00201B68A34204D23A
:1005C80007F08EFE286000F0D9FA70BD07F088FEAB
:1005D800241AF0E72C0100200000002073B5FFF773
:1005E800DFFF002801D001F0D5FB302007F0A4FE82
:1005F8006B46DE1D002331000500337001F004FB5B
:1006080001281FD12F3007F097FE040002003100A7
:10061800280001F01AF9144B22781B789A420ED15F
:10062800607805380B280AD8FFF74AFD16121A0910
:1006380009090909090909062000FFF703FF200035
:1006480007F084FE280007F081FEFFF777FF73BDEF
:100658002000FFF73DFFF2E72000FFF74AFFEEE733
:100668002000FFF75BFFEAE7200300200849094B59
:10067800C96B094A8900C958084810B5D1670200F2
:100688009B6D88320021136006F0DEF910BDC0466C
:10069800188E0008588E0008A40500209C0500202C
:1006A80000231B4AD15C81422ED00133042BF9D19F
:1006B8000023184AD15C814228D00133042BF9D198
:1006C8000023154AD15C81421AD00133042BF9D199
:1006D8000023124AD15C814214D00133042BF9D192
:1006E80000230F4AD15C81420ED00133042BF9D18B
:1006F80000230C4AD15C814208D00133042BF9D184
:10070800082070470920FCE70620FAE70720F8E7E9
:100718006E000020660000205E00002056000020C9
:100728004E0000204600002004310B0001314A1E13
:1007380012788242F9D104225242985C7047000034
:1007480000230F4AD15C814214D00133042BF9D124
:1007580000230C4AD15C81420ED00133042BF9D11D
:100768000023094AD15C814208D00133042BF9D116
:10077800092070470620FCE70720FAE70820F8E779
:10078800360000202E000020260000200A0000234A
:1007980010B50A32D45C844201D00133FAE7C85C50
:1007A80010BD000070B50D0000280AD00549FFF7FC
:1007B800EDFF0400012107F0BFFC2900200007F02D
:1007C80017FD70BD0600002010B50021C02007F0FD
:1007D800B3FCC02007F04AFD013843425841C0B27B
:1007E80010BD0000002330B50549064C5A00A25A36
:1007F8000240551EAA41CA5401330F2BF6D130BD11
:100808008F010020E8870008002330B50549064C11
:100818005A00A25A0240551EAA41CA5401330F2B4E
:10082800F6D130BD80010020AC8700080023064ABD
:10083800D15C002904D1D054044A9B0099507047D8
:1008480001330A2BF4D1FAE7CC010020A4010020DF
:1008580070B5050007F044FD2C68A0420AD307F0E4
:100868003FFD2C68041BFA2300209B009C4240415A
:10087800C0B270BD07F034FD241AF4E710B50400C7
:1008880007F02EFD206010BDF0B5002485B01C4D8A
:100898000390082C01D1023501342B88039A1342A6
:1008A80018D000263300EA8B0192164A0199925D0E
:1008B80002928A4216D1144BB700FF183800FFF78E
:1008C800C7FF01280DD16B46187A01F0BDFA380030
:1008D800FFF7D4FF013402350F2CDAD1012005B01F
:1008E800F0BD012301360A2EDDD1002BF2D1074BD2
:1008F8001B5D002BEED16B46187901F0A5FAE9E7EC
:10090800E8870008CC010020A40100208F01002006
:10091800F0B5002585B01A4E03903388039A134228
:1009280018D000242300F28B0192164A0199125D17
:1009380002928A4216D1144BA700FF183800FFF71D
:1009480087FF01280DD16B46187A01F07DFA38002F
:10095800FFF794FF013502360F2DDED1012005B0D7
:10096800F0BD012301340A2CDDD1002BF2D1074B55
:100978005B5D002BEED16B46187901F065FAE9E76B
:10098800AC870008CC010020A401002080010020D1
:1009980010B501F0ADFA041E0FD007F0A1FC636892
:1009A800C01A0A2809D9FFF70FFF012805D1A17835
:1009B8006078FFF7F7FE01F0A1FA10BDF8B5002145
:1009C800C02007F0B9FB012507F08AFC00240600C7
:1009D8002F0007F085FCFA23801B9B00984201D367
:1009E8002000F8BDC02007F041FC012804D1012DEA
:1009F80002D100250134E4B2C02007F037FC0028FA
:100A0800E7D13D00E5E7000070B5FFF7D7FF050027
:100A180000F0B9FF064C0749200007F0A9FA2900A1
:100A28000A22200007F0E3FA00F0B6FF012070BDAB
:100A3800940200209087000870B506000D00084C4D
:100A48001100200005F0E7FD3100200005F03EFE12
:100A58002900200005F03AFE200005F005FF70BDD2
:100A68009C05002010B5002206216220FFF7E4FF54
:100A7800002207216220FFF7DFFF00220821622001
:100A8800FFF7DAFF002209216220FFF7D5FF10BD2A
:100A980010B5002206216320FFF7CEFF00220721B0
:100AA8006320FFF7C9FF002208216320FFF7C4FF76
:100AB800002209216320FFF7BFFF10BD10B5FFF723
:100AC800D5FDFFF7CFFFFFF7E3FF01F0DFF901F0F6
:100AD8002DFA10B5002206216420FFF7ADFF002291
:100AE80007216420FFF7A8FF002208216420FFF7F0
:100AF800A3FF002209216420FFF79EFF10BD00001C
:100B080070B506000D000E4C200005F084FD310084
:100B1800200005F0DBFD200005F0A6FE29000122DB
:100B2800200005F09AFE0025200005F04DFD002864
:100B380001D1280070BD200005F04AFDC5B2F3E7D9
:100B48009C05002010B562210120FFF7D9FF622122
:100B580004020020FFF7D4FFA4B2001980B210BD30
:100B680010B563210120FFF7CBFF632104020020A9
:100B7800FFF7C6FFA4B2001980B210BD70B5FFF729
:100B8800E1FF194B04001A78C005C00F5870824263
:100B980002D0187001F028F9E44300F0FDFEFFF7D9
:100BA800DFFF64040500660C002C02D03000FFF75C
:100BB8006BFEE8430005040D002802D02000FFF773
:100BC800A7FE3000FFF70EFE2000FFF71DFE0024F1
:100BD80001F066F9A04204D101F044F9040001F0E3
:100BE80047F9200070BDC0460400002010B5FFF78B
:100BF800B7FFC0434004400F083010BD70B5040073
:100C080001380D001A2840D8FFF75AFA0E0E0E0EBA
:100C18001C1C1C231C2323232A2A2A313131313856
:100C2800383F38383F3F3F0060210620FFF768FF14
:100C380006001C492000002D2ED1FFF775FD8643C4
:100C4800F0B270BD60210720FFF75AFF1649060071
:100C5800F0E760210820FFF753FF14490600E9E791
:100C680060210920FFF74CFF11490600E2E76121E6
:100C78000620FFF745FF0F490600DBE76121072043
:100C8800FFF73EFF0C490600D4E761210820FFF773
:100C980037FF0A490600CDE7FFF746FD3043C0B2EB
:100CA800CFE7C0466A000020620000205A000020FA
:100CB800520000204A000020420000203A00002094
:100CC800431E70B504000D000E2B0CD8FFF7E8FC8E
:100CD800290006002000FFF791FF60220100300084
:100CE800FFF7AAFE70BD1B28FCD8FFF7D9FC290026
:100CF80006002000FFF782FF61220100EFE70000F5
:100D080070B5040001380D0064210E2822D8FFF7C1
:100D1800D7F915151515080808081B1B1B1B2121D9
:100D280021000620FFF7ECFE060010492000002DE8
:100D380016D1FFF7F9FC8643F0B270BD0720FFF724
:100D4800DFFE0B490600F1E70820FFF7D9FE094945
:100D58000600EBE70920FFF7D3FE07490600E5E7A1
:100D6800FFF7E2FC3043C0B2E7E7C046320000209C
:100D78002A000020220000201A00002070B50E0072
:100D88000400FFF7DDFC310005002000FFF7B8FF85
:100D9800642201002800FFF74FFE70BDF8B504007B
:100DA80008200D0007F0C8FA671E0F4EFFB230602A
:100DB8000470447085700E2F10D820002900FFF7AA
:100DC800DDFF346807F08CFA6060092F06D83068B8
:100DD80001F074F8346807F083FA6060306807F04F
:100DE800B5FA0120F8BDC046A001002001235B42EE
:100DF8000380034B43600123038100238372704700
:100E080000093D0010B500210F2007F0F1F910BDD1
:100E180010B501210F2007F0EBF910BD1F2307B50E
:100E280014220093152102480C3B06F027FC07BD4D
:100E3800D801002070B501210400C52007F07CF915
:100E48000121C52007F0D4F9134D0F21280006F021
:100E58001FFA01210F2007F06FF901210F2007F079
:100E6800C7F9280001221F2106F0AAFC2800002249
:100E78001F2106F0BCFC012300225B422370637033
:100E88007F3B23711F3363713633A3712C33E271B7
:100E980023726272A37270BDD801002070B505007C
:100EA8000F2604A800785B00920003431343C9008F
:100EB8000B431C01059B28001B0A33401C43FFF70A
:100EC800A1FF0D48E4B2220004003100002306F01F
:100ED80042FA059B3100DAB22000012306F03BFA02
:100EE8000021C52007F084F90121C52007F080F909
:100EF8002800FFF78DFF70BDD801002007B50192CB
:100F0800012213000092FFF7C9FF07BD10B5024880
:100F1800FFF790FF10BDC0468802002013B5084BAC
:100F280004000093002308006422190007F0A6F8C3
:100F3800631E9C4182B2E1B20248FFF7DFFF13BD96
:100F4800FF0F00008802002010B50248FFF74EFF8F
:100F580010BDC04688020020704710B50400242147
:100F680004F07CFE200010BD30B58DB0099301233C
:100F7800089325330793E1235B010493F0230400CE
:100F880032205B0003930A4B0A4D02930A4B0A90E6
:100F980006922000094A0591009309492B00019502
:100FA80000F01AFA2900200000F060F90DB030BDF9
:100FB800AA050000260200007A0D00004C1D000062
:100FC8007017000010B50400034820602000183096
:100FD80000F090F8200010BD48880008054B4360D9
:100FE800054B8360054BC360054B0361054B4361AB
:100FF8007047C046B00094084FFF6BF72080280068
:10100800DF7FD7FF40BF000010B50400183000F0A4
:1010180089F82000FFF7E2FF10BD4368DB438360D7
:10102800C368DB430361704710B50400FFF7F5FFA1
:10103800200000231422211D1830FFF795FF10BD52
:10104800827910B513000124A343002901D023009D
:101058001343837110BD00000023122905D90B1C0E
:101068001E2900D91E23123BDBB20F2182790A40C8
:101078000249CB5C134383717047C046308800082F
:101088000023042901D8044B5B5C0F21027B0A4032
:10109800134303737047C0462B8800080139C9B24F
:1010A8000023032901D8044B5B5C0E2182798A4313
:1010B800134383717047C046278800080E22C379FE
:1010C8000139C9B210B59343022905D9023A13432D
:1010D800C3710223437109E00224054A515C427935
:1010E8000B4322404271C3710C29F2D010BDC04697
:1010F8002488000810B50124002A01D00024012208
:10110800C180FB2142700172642204708372002B3B
:1011180000D0323A427210BD10B54178C08807F04D
:1011280067F810BD10B504000121C08807F004F865
:101138002000FFF7F1FF10BD10B50178C08807F057
:1011480057F810BD70B504001500002900D1013111
:10115800064B4808C018FEF7BDFF002D02D0082333
:10116800E3561818002800D1013070BD40420F0026
:1011780070B5837A04006426002B04D0131CB24295
:1011880000D9331CDEB2FA2366729B00994200D262
:10119800594301222000FFF7D5FF050030006421E4
:1011A8006843FEF797FF80B22D1AA580608070BD56
:1011B8007FB580230E002C4CDB01994223D2080016
:1011C800A3680093431E9841081AFA2165688900AC
:1011D80001356843FEF77EFF0022009B0193A36858
:1011E80000930199009B994209D20199009BEB1A3F
:1011F8005B18D218009B01939042F0D87FBD019BE9
:1012080000995B1AF5E7FA2130008900FEF762FFC2
:1012180007F06EF8FA2130008900FEF7E1FF0800B8
:10122800421E9041081AFA21A36889000293656852
:1012380001356843FEF74EFF0022029B0393A36823
:1012480002930399029B994209D20399029BEB1AD4
:101258005B18D218029B03939042F0D8CEE7039B09
:1012680002995B1AF5E7C04610E000E0F0B5837A12
:1012780004000F0085B0002B02D0437A632B0DD9F0
:101288002000FFF759FF39002000FFF791FF2000E9
:10129800FFF742FF0126300005B0F0BD03A800F0BB
:1012A800FAF803A800F0FDF800260500AF42F2D9CD
:1012B8002000FFF741FF7B1B01936188994200D909
:1012C80019002000FFF774FF2000FFF725FF618851
:1012D80001366D18B6B2AF42DDD9019AA388511A0A
:1012E800994200D919002000FFF762FF03A800F017
:1012F800D8F80500DAE770B50D000400FFF70CFF19
:10130800002D03D029002000FFF752FF70BDF0B573
:1013180085B001930D9B050000930EAB1C880FABA5
:101328001F780C9E02910392002F47D1A74243D009
:1013380001231E424AD002992800FFF797FF03991C
:101348002800FFF7D8FF009B7608DB071E43009BA9
:1013580001375B08BFB20093E8E701992800FFF75F
:1013680085FF28000A99FFF7C6FF013FBFB2402F4B
:10137800F3D8221C402C00D240224034A21A92B248
:1013880001200021013AFFF71BF804000F00230099
:10139800009A33403A40134312D002992800FFF7CD
:1013A80065FF03992800FFF7A6FF6408FB071C43A5
:1013B80023007F083B43EAD105B0F0BD2700D6E7FC
:1013C80001992800FFF752FF0A99EBE701992800D5
:1013D800FFF74CFF0A99B3E7F0B591B00A9316AB43
:1013E800079204CB0F001B880B920C9319AB1B8838
:1013F8000AAA08931CAB1B8804000D931DAB19881F
:1014080031239B18DB7F00250E931FAB1B880F939E
:1014180020AB1A78FFF7ACFE002F03D0390020006C
:10142800FFF724FF079B002B03D019002000FFF7CC
:1014380062FF1B9E0D9BB44663440993099B9E4221
:1014480011D1089B002B03D019002000FFF70EFFD5
:1014580020001A99FFF74FFF01350F9BADB2AB4241
:10146800DAD211B0F0BD0E9B200005930823049337
:1014780033780B9A029300230393189B0A990093DD
:101488000C9BFFF744FF0136D8E710B5040006F0BF
:101498002BFF206010BD10B50400FFF7F6FF2000F9
:1014A80010BD10B5040006F01FFF21680300421AA2
:1014B800501E994200D8100010BD0000038810B5D6
:1014C800012B25D0002B05D10133144C02335B00CE
:1014D8001B5B03800B88012B1CD0022B1CD0032B19
:1014E80005D1013B0E4803335B001B5A0B80138860
:1014F800002B07D0012B05D0022B03D0032B01D0E2
:10150800042B04D1074905335B005B5A138010BDD7
:101518000023DAE70023E5E70123E3E77088000802
:10152800648800085088000830B58DB06C46E180AA
:1015380001A90A8063800021012834D0022834D010
:101548000123002203A8FFF73DFD6B4668469C1C5B
:1015580001AD2200290010AB0630FFF7AFFF03A84A
:10156800FFF752FD6B46D98803A84B1E9941C9B2B3
:10157800FFF766FD297803A8FFF782FD217803A805
:10158800FFF78CFD10AB197803A8FFF765FD002164
:1015980003A8FFF793FD03A8FFF746FD03A8FFF78D
:1015A800DBFC0DB030BDC221CAE7C321C8E713B5C3
:1015B80004AC24880094FFF7B7FF13BD4068704758
:1015C80010B504008EB0236820009B689847002857
:1015D80001DC0EB010BD2368210068465B6A98479D
:1015E800F1E784B070B5040038200793059106929E
:1015F80004F030FB05003822002106F096FF312266
:10160800280005A906F0D2FFA368002B0CD0E368D8
:101618005D6363680120013363600023E56023761E
:1016280070BC08BC04B01847A560F2E784B070B578
:101638008AB01193436804000F911092002B15D1C2
:101648006A4612AB006862CB62C262CB62C262CBEE
:1016580062C21B78137005690F992000109A119BBC
:10166800A8470AB070BC08BC04B01847382004F07A
:10167800F1FA05003822002106F057FFA36831224D
:101688006B6328000FA906F091FF636801200133FE
:1016980063600023A5602376E3E7000010B504002B
:1016A800064B0360A068002801D1200010BD436BE1
:1016B8003821A36004F0D2FAF4E7C0468088000815
:1016C80010B50400FFF7EAFF20001C2104F0C6FA59
:1016D800200010BDF0B5436887B002900391012B3C
:1016E8001ADD030008330493049F3D68002DFBD0E6
:1016F8002E00716B002906D03000039B9847002804
:1017080001DC766BF5E7746B002C07D1049B9F42D4
:10171800EAD1029BDE601C7607B0F0BD0194019B04
:10172800596B002908D01800039B9847002803DC50
:10173800019B5B6B0193F2E7019B019A5B6B05933D
:1017480000237363536321002800039B98470028F4
:101758000BDC3D602F006B6B3437002B14D16C63AE
:101768002700646B002CFBD10AE03C602700636B08
:101778003437002B0AD165632F006D6B002DFBD128
:10178800059B34373B60B0E71D0023001C00DAE7F7
:1017980010B500210A2006F0CFFC0121092006F02F
:1017A800CBFC01211A2006F0C7FC9621044C8901C4
:1017B800200000F0E3FE6421200006F05DFC10BD6F
:1017C80094020020002110B504000170302201307D
:1017D80006F0ABFE200010BDF0B54B6805000C000C
:1017E8008FB0002B09DC3122002106F09EFE280074
:1017F800FFF7E8FF28000FB0F0BD012B16D08E6868
:101808003122310001A8776B06F0D0FE3000382174
:1018180004F024FA63683122013B63600023280046
:10182800A760237601A906F0C1FEE3E70B681B6AEF
:101838009847DFE710B500248918A2B2934200D870
:1018480010BD0A5D02550134F7E7030070B5017851
:10185800117040785070997809025180DC78091924
:1018680051801979062411715D795571282D03D994
:1018780000200CE011550134A61FF6B2195DAE42E6
:10188800F8D30902D1855B19DB79C918D18570BDF8
:101898008B791B020380CA799B1803800B7A1B0281
:1018A80043804A7A9B1843808B7A1B028380CA7ACA
:1018B8009B1883800B7B1B02C3804A7B9B18C380C9
:1018C800012070478B791B020380CA799B1803801B
:1018D8000B7A1B0243804A7A9B1843800120704789
:1018E8008B791B020380CA799B18038001207047FB
:1018F8008B791B020380CA799B1803800B7A1B0221
:1019080043804A7A9B1843808B7A1B028380CA7A69
:101918009B1883800B7B1B02C3804A7B9B18C38068
:101928008B7B1B020381CA7B9B18038101207047B4
:10193800F0B50023012604000A4F0B488B4200DB58
:10194800F0BDE25C5040082205004008354001D057
:10195800784080B2013A92B2002AF5D101339BB2A5
:10196800ECE7C04601A0FFFFFFFF000070B58E1E28
:101978000D0031000400FFF7DBFFA0556419013C9E
:10198800000A207070BD10B501211A2006F030FC45
:10199800012006F0ADFC10BD10B5032006F0A8FC30
:1019A80000211A2006F024FC10BD0300002210B507
:1019B8001C7E8068944203D05A698A4205DC186903
:1019C8008A4207DA002802D110BD0022F8E7406BEE
:1019D8000132F5E78A4204D101215A61197618616A
:1019E800F2E70020F0E7F0B50C004968050091B077
:1019F800002909DC3122002106F097FD2800FFF7B5
:101A0800E1FE280011B0F0BD0026267601291AD083
:101A180002392000FFF7C9FF0700436B3122190084
:101A280003A8019306F0C2FD3821019804F016F9C5
:101A380063687E63013BE76063603122280003A985
:101A480006F0B4FDDDE7A7683122390003A806F0E7
:101A5800ADFD3821380004F001F9A660E660666043
:101A6800EBE710B5040008001100FFF79EFF3122D4
:101A780001002000002903D006F098FD200010BDC9
:101A880006F053FD2000FFF79DFEF7E7F0B50500CF
:101A98000C008FB0002A02DB4B6893420ADC31222B
:101AA8000021280006F041FD2800FFF78BFE2800E2
:101AB8000FB0F0BD002A05D10B685B6A2100280031
:101AC8009847F4E7013B934202D10B681B6AF5E79C
:101AD800511E2000FFF769FF0600476B31223900CD
:101AE80001A806F063FD7B6B38007363382104F0AE
:101AF800B5F863683122013B636000232800237630
:101B080001A906F053FDD2E782B010B50393002374
:101B18000292994209DB42688A4206DDFFF745FFD7
:101B2800312202A906F042FD0123180010BC08BCAE
:101B380002B0184782B070B58AB00F9343680400AA
:101B48000E000E928B4215DC6A4611AB006862CB20
:101B580062C262CB62C262CB62C21B7813700E99FA
:101B68000F9A109B05692000A8470AB070BC08BCF2
:101B780002B0184700290FD16A4611AB006862CB42
:101B880062C262CB62C262CB62C21B7813700E99CA
:101B98000F9A109B4569E6E7382004F05BF80500CA
:101BA8003822002106F0C1FC2800FFF70BFE711E49
:101BB8002000FFF7FAFE0600312228000EA906F0E1
:101BC800F5FC736B01206B636368756301336360B5
:101BD80000232376C9E70000084A094B10B51360B3
:101BE80000239360D36053601361536113760A2115
:101BF8000922044800F0EAFB10BDC0460403002097
:101C08008088000894020020F0B5082318255C4C51
:101C18005B19A5440AAF3122B8607960D8195949CF
:101C280006F0C4FC88230024FB181C607423FF22E0
:101C380080265B1921009200D81906F076FCF60080
:101C4800BC613C77FC60504D280000F097F9041EF9
:101C580020D1FB68013B9C4227DB00244B494B68A1
:101C6800A34212D018263C239B19DD192800FFF740
:101C7800B3FD3D212D7889192B002200B868C919B8
:101C8800FFF7D8FD7B6801341D702000BD46404B2E
:101C98009D44F0BD182170235B18D9193200280023
:101CA80006F0C4F983B2FB60CDE76B4618253B60AC
:101CB80070235B19DE19335D002BCED02200310072
:101CC80078190523FFF7B6FD6A463B7F29205B009C
:101CD800DBB2DD1CEDB23B61EB1DDB08DB00D31A88
:101CE8009D4600220AAB05341A7000216A1EA4B270
:101CF80068447B6106F019FC2B00220031007869EA
:101D0800FFF798FD2B006A460C33DB08DB00D31A7B
:101D18009D4629202A1D0021684406F006FC182348
:101D28000AAE3000F918052206F040FC2D202A00E2
:101D38007969684406F03AFC2C19202118250923F2
:101D48003A695B190832D2B279180A70D819310089
:101D580006F02CFC14236A465B19DB1962CB62C2BD
:101D680062CB62C262CB62C21B7808481370BB6A3E
:101D7800396A7A6AFFF735FC3B68A4B29D4668E782
:101D88004CFBFFFF2C87000894020020040300206E
:101D98008C04000070B500281FD0104B02211A785F
:101DA800042300250E4C63726370FD33FF33618199
:101DB800A081607106312000227222706380257133
:101DC800FFF7D4FDFFF7DFFD615D0648013500F040
:101DD80021FA082DF8D1FFF7DFFD70BD20030020A0
:101DE800220300209402002013B500246A460E4BFB
:101DF80000941B780194137004235370023BD37032
:101E080007231071082168465371FFF7AFFDFFF7EC
:101E1800BAFD6B460548195D013400F0FBF9082C42
:101E2800F7D1FFF7B9FD13BD20030020940200206D
:101E380010B5034800F0A2F90248FFF72FFC10BDC7
:101E480094020020040300200023054AD15C0029E5
:101E580001D1D054704701330A2BF7D1FAE7C046B5
:101E680032030020014B18787047C0463203002027
:101E780000231900044A50780133DBB21070517006
:101E880001320A2BF7D170473203002010B50A221D
:101E98000021024806F049FB10BDC046320300206D
:101EA8000023054AD15C002904D101330A2BF9D15A
:101EB800012070470020FCE73203002070B50023A2
:101EC80004000A4D9E00AA59002A0AD1082006F0EB
:101ED80033FA636870514360A37822888370028064
:101EE80070BD01330A2BEDD1FAE7C0463C03002050
:101EF800014B18687047C0463C03002070B5094C78
:101F0800094D2068002808D006F020FA00236068F0
:101F18002360984201D0FFF7D1FF0434AC42F0D1DE
:101F280070BDC0463C0300206403002070B5054C1A
:101F3800054D206806F00AFA002308C4AC42F8D11F
:101F480070BDC0463C030020640300200020704799
:101F5800020003006A32693311781B78994209D06C
:101F68003F211378C0181378293001330B400078CB
:101F78001370704701204042FBE700000200030095
:101F8800693210786A331B784030C01A044B184005
:101F980004D5402301385B42184301307047C046DE
:101FA8003F00008072B60200002369326A30137065
:101FB800037062B67047030002006A336932197809
:101FC8001278914204D01B78C018293000787047E5
:101FD80001204042FBE7012A02D10160002070473E
:101FE800022A05D0032AF9D0002AF7D10260F5E7C2
:101FF8000B680360F2E710B50368984710BD00004E
:10200800F0B5264F0D003B6889B08B4236D0244C82
:10201800200003F0E7FA2000002D3BD003F0B2FCCB
:10202800032301266B430190039303990198FEF75C
:1020380051F81C4A0290904222D83100200003F047
:1020480001FC00222000029903F0C8FC00222000B5
:10205800110003F0EBFC00230593134B20000493BD
:10206800124B04A90793124B069303F095FD069BA8
:10207800002B0AD1200003F093FB3D6009B0F0BDAE
:10208800019B76005B080193CFE704A903220800AF
:102098009847EFE703F0A5FBEFE7C046640300208D
:1020A80088030020FEFF0000AD230008FF1F000882
:1020B800DF1F0008010010B528310978C369026ADA
:1020C800890705D59A620121408A06F035F810BDC6
:1020D8009A61F8E7030010B528331978008A890750
:1020E800C90F023106F028F810BD0000030070B5D2
:1020F80028331B7804000E005B070FD50B4D002911
:102108000DD02B68834209D0FFF7E4FF0122084B6A
:1021180052421A60074B03321A602C6070BD28685F
:10212800A042FBD1FFF7C6FF2E60F7E77C03002033
:10213800740000207403002070B50D4D04002B6856
:102148000020A34213D10B4B19680029FCD12300AE
:1021580028331B785B0702D52000FFF7C7FF002153
:10216800054B200029601960FFF74AFF012070BD68
:1021780084030020800300207C03002010B50400A5
:10218800024B0360FFF7D8FF200010BDBC88000891
:1021980010B50400FFF7F2FF2000702103F05EFD88
:1021A800200010BDF8B5164F04003B680020A3427C
:1021B8001CD0144E3268002AFCD1002B02D0180023
:1021C800FFF7BAFF012501220F4B52421D600F4B4A
:1021D8002000616A1A60FFF713FF230028331B7879
:1021E8003C605B0703D40A4B1C600120F8BD3368D0
:1021F800002BFAD129002000FFF778FFF5E7C04649
:102208008403002080030020740300207400002051
:102218007C030020F8B505000823040028352A7837
:10222800144E13432B703368002BFCD14B008021D4
:10223800890019432A78104B1960920701D5C943C0
:102248001960002703220D4B20001F600C4B616AA8
:102258001A60FFF7D5FE2B785B0703D539002000FD
:10226800FFF744FF08222B78012093432B7034603A
:10227800F8BDC04680030020700300206C030020D6
:1022880078030020184A70B51168030001391160FD
:10229800002910DC154C2168481C206009290DDC38
:1022A8001348DC6901681B6ACD0705D5A3610323C0
:1022B80049080160136070BDA362F8E7012111604D
:1022C8001A0028321278140703D50022094B1A6025
:1022D800F1E71928EFDD5207F7D5074A1068984249
:1022E800F3D1FFF703FFF0E7780300206C03002029
:1022F800700300208003002084030020264AF0B5E4
:102308001368013B1360002B35DC060043698169C3
:102318001B6928360B40214C5B1A377859424B41D0
:102328002168BD07B446ED0F4E1C0AD19D4206D167
:102338000023053111601A4A236013601BE0012352
:10234800FBE707291CDD9D4211D001003F256931BB
:102358000B7801332B4005006A352D789D420BD050
:102368000D7840190E4D29302D6805700B7001232A
:102378001360023B2360F0BD012361463B43F5E750
:10238800074E306840089D4201D080231843013130
:10239800032330602160D0E774030020740000201C
:1023A80068030020074B10B51A68002A02D0186885
:1023B800FFF7A4FF044B1A68002A02D01868FFF739
:1023C80061FF10BD7C03002080030020F7B50D00DD
:1023D800FA21040000208900A1606349EEB201934C
:1023E80060602160258262821E2E57D85F4FB3003D
:1023F800E021DF59C900294039433F063F0F042F28
:102408005AD960610F200140594889000958A161D3
:10241800D1B21E2958D8554F8B00E020DF59C00093
:10242800104038433F063B0F0027042B02D8514F7A
:102438009B00DF59E7610F27384023004C4F80008D
:10244800C05928332062A81A009303005842584103
:10245800019B80005B0018430F2300271840844627
:10246800009867620078984363461843009B187089
:102478002000693007704770E7661E2936D8E020CB
:102488000F233A4F8900C0001040CA591043000971
:10249800184003F0E7FB00283DD1FEE7C0212940A2
:1024A800C0290DD1CF2E0BD83F2333492B409B0099
:1024B80059582E4F8B009BE72E48BF003858A0E78D
:1024C800002161610F319FE7C0201040C02809D169
:1024D800CF2907D83F23284813409B001858234F7B
:1024E80083009AE70020E0610F30A6E7C0270F209D
:1024F8001740C02FCDD1CF29CBD8813F1E4B1740D5
:10250800BF00FF58E0231949BF00DB0013407A5889
:1025180013431B09BCE7009B1B785B0721D41E2EC5
:1025280009D8124BB600F0580006000F03F09AFBCA
:10253800002816D1FEE7C0230F202B40C02BF5D171
:10254800CF2EF3D8813B0C492B409B005B58E021F0
:10255800064A9B009B58C9000D401D432D09284081
:10256800E4E72000FEBDC046BC880008588E00087D
:102578000089000880000020188E0008030010B5AC
:10258800283341621B7804005B0708D4FFF792FDEB
:102598002000FFF79FFD2000FFF704FE10BDFFF7A6
:1025A80089FDFBE710B50248024903F0A9FA10BDFE
:1025B800880300200048014010B5024803F074F970
:1025C80010BDC046880300207047000070B5104B4E
:1025D80005001978002901D1012070BDFA2080007A
:1025E800FDF778FD0B4C01002068FDF773FD00F046
:1025F80081F8041EF0D1032DEED802000120290035
:10260800404200F031F8044B20001D60E5E7C04669
:1026180078000020B80000207C0000208023084AB1
:102628005B00116810B50B4300201360FFF7CEFF65
:10263800041E03D1FFF7C8FF200010BD0124FBE7EB
:1026480000200240034A044B11681B785B18136092
:102658007047C0463C04002078000020014B1868F1
:102668007047C0463C04002010B5FF2403220B002D
:1026780021000240D20091409B012340C94393406E
:1026880000280ADBC0240B4A800880008018A400B8
:1026980002590A401343035110BD0F221040083855
:1026A800054A800880008018C26911401943C16139
:1026B800F2E7C04600E100E000ED00E0002805DB9D
:1026C8001F2318401E3B8340014A13607047C046D1
:1026D80000E100E0002809DB1F2318401E3B83406F
:1026E800034AD367BFF34F8FBFF36F8F7047C0465E
:1026F80004E100E08022431E5204012093420DD2DF
:10270800C021074A07485360036A09061B021B0ACF
:102718000B43036200200723906013607047C04694
:1027280010E000E000ED00E0002807DB1F23C022D6
:1027380018401E3B8340024952008B507047C046E8
:1027480000E100E0704710B5FFF7FCFF10BD7047CF
:1027580010B5041E01D1012010BD437FDAB2002B51
:1027680002D10277FFF7F3FF022363772379002B67
:102778001CD118212368124A5A619A688A439A60C0
:1027880062792368002A19D1013A60211A619A688E
:1027980000208A4361690A4380219A609A688A43C3
:1027A800A1690A439A6001236377D5E72000E268AC
:1027B800A16800F007F80028E2D0CCE72269E4E736
:1027C800B71DC10430B51F2304000120013B21D3EC
:1027D8000D00DD400542F9D0102A14D005D8002A92
:1027E80008D00120082A12D030BD0120182AFBD1B8
:1027F800062BF9D820684161182183688B4313435D
:1028080083600020F0E70120072BF3D9ECE70F2BBA
:10281800F0D9E9E70120102AE6D0E5D8002AE3D16B
:10282800E8E70000F0B5002808D0841DE37F411DCB
:10283800022B05D00423C3630023CB770120F0BD0E
:102848000E250268466C1368AB4313603368104D5D
:102858002B403360012316689E431660026C1B33BD
:102868001A401B3B93400B4E77683B437360C26C26
:10287800836C5A60036D002B05D01A682A401A60D1
:10288800436D826D5A6001230020E377C877D6E74D
:10289800FFFEFFFF00000240F8B5811DCB7F022B31
:1028A80003D00423C3630120F8BD0E2402681C274B
:1028B8001368456CA3431360012314689C43146098
:1028C8002A68104C22402A60026C0F4D3A4093400F
:1028D8006E6833436B60C26C836C5A60036D002B67
:1028E80005D01A6822401A60436D826D5A60012330
:1028F8000022CB77431DDA77836B934200D0984749
:102908000020D1E7FFFEFFFF000002400630C07F35
:10291800C0B2704770B5084D0400EB68184202D089
:10292800E86003F093FA2B69234203D020002C615E
:1029380003F090FA70BDC0460018024003689A6917
:10294800920701D500229A6201229969114202D1A7
:1029580099690A439A61704730B5039C006823431C
:10296800120489051A43890D054B45680A43640D0D
:10297800234352009D4352082A43426030BDC0465B
:10298800FF63FF0310B5436B174C0AB2A34202D092
:10299800164CA34212D1B823002A0ADB283B10297F
:1029A80007D0303B202904D00B00403B5A4253410A
:1029B8009B0101680A6813430B6010BD00239A420B
:1029C80000DAB833CA0701D5F22213438A0701D5C2
:1029D800F4221343102902D190221343E9E7202956
:1029E800E7D10B43E5E7C046D93400086D37000846
:1029F800002310B5CA0708D5030041331A782823E5
:102A08001A40CA33282A00D1B03B8A0708D50200E9
:102A18002824413212782240A2420BD14422134387
:102A280009B2002901DAB822134301680A689A43F7
:102A38000A6010BDF422F2E7C36AAA2B02D1002370
:102A4800C3627047AA23C26A1B029A42F9D1802343
:102A58009B04F5E7F8B504000E0017001D00226876
:102A6800936933409B1B59424B41BB4201D0002024
:102A780017E06B1CF4D0FFF7F1FD069BC01AA842C3
:102A880001D8002DEBD12022636C0120134363642D
:102A9800230041331A70220000234232403413705D
:102AA8002370F8BD7047000070B504000120002CA9
:102AB8003FD0250041352B78DAB2002B05D1230011
:102AC800403320001A70FFF7EDFF242301212B70FB
:102AD8002368E0681A68A6688A431A601A49626817
:102AE8000A401A619A6819490A409A60012821D156
:102AF8008022120232439A605868154A02435A608B
:102B0800DA6800200A40DA60616922690A43A1692B
:102B180009020A43DA60216AE2690A431A6001225B
:102B280019680A431A60202360642B7020634234BA
:102B3800207070BD8422120232439A600228DBD1D1
:102B4800802212015A60D7E7FFFFFFF0FF7FFFFFE7
:102B580000800002F0B51D00002389B00793030030
:102B68004133059203931B7804000220202B59D18E
:102B780023689E69802332001B021A401E4251D1ED
:102B8800230040331E78012E4CD001261E702423CA
:102B98000398890503708B0D62640493E368012B25
:102BA80029D1374B049A134322685360FFF756FD27
:102BB80002902268936992695B0912093340324096
:102BC80013431BD0236810279B691A003A403B42E5
:102BD8002AD1029B2021009320002B00FFF73AFF07
:102BE80000281ED120232268D361220040344132BC
:102BF8001370207016E0A0239B01D3E76B1CD8D07C
:102C0800FFF72CFD029BC01AA84201D8002DD0D195
:102C18002023039A403413706268134363600023CF
:102C28002370012009B0F0BD029B002200932021EF
:102C38002B002000FFF70EFF021EF2D12368059833
:102C4800DF612027DF61079981420FD18021586811
:102C5800C90101435960029B3900009320002B00F1
:102C6800FFF7F8FE0028DCD12368DF61079B059A8F
:102C780001330793079B934200D28FE7C8E7C0460A
:102C880000200002F0B50E00010085B00393413129
:102C98000D780400170002200A9A202D3DD1250046
:102CA80040352878844663460220012B35D0013808
:102CB800287020300870113848700021039B616427
:102CC8006385194BE2626363638D6762FF2B26D9C4
:102CD800FF23802723857F04236B112B06D1AA2A83
:102CE80004D0AA21002309028A4207D12000FFF755
:102CF800A3FE638DFF2B00D8E76A0C4B310000263A
:102D0800228D2000D2B200933B00FFF725FE200061
:102D180001212E70FFF736FE300005B0F0BD638D3F
:102D2800E76A2385D8E7C046AD3300080020008055
:102D3800F0B50E00010085B0039341310D78040011
:102D4800170002200A9A202D3DD125004035287809
:102D5800844663460220012B35D001382870213083
:102D68000870123848700021039B61646385194B11
:102D7800E2626363638D6762FF2B26D9FF23802796
:102D880023857F04236B122B06D1AA2A04D0AA21FB
:102D9800002309028A4207D12000FFF74DFE638D08
:102DA800FF2B00D8E76A0C4B31000026228D20004B
:102DB800D2B200933B00FFF7CFFD200002212E7016
:102DC800FFF7E0FD300005B0F0BD638DE76A2385AD
:102DD800D8E7C046AD33000800240080F0B50600EF
:102DE80085B002922822019103934136337804007A
:102DF8001340934202D0012005B0F0BD019B002B87
:102E080002D0029B002B03D180239B006364F2E76E
:102E1800250025494035FFF7EBFD2B780220012BD3
:102E2800EAD001232B703378204F2A2B16D10100CA
:102E38002000FFF7DDFD23681A6812040ED51A6812
:102E4800E06B3A401A60002808D0194B8363FFF7FB
:102E580023FD002802D0E06B836B98472923337049
:102E68002300202242331A700023636423685A68BF
:102E78003A405A60019A6262029A6285628D22859E
:102E8800039AE2620B4A996962639A69D20303D58D
:102E98000822114200D0DA610026200002492E7073
:102EA800FFF770FD3000A7E701800000FF7FFFFFFC
:102EB800A13900087D380008F7B5070000922822DC
:102EC800019341373B7804000D001340934201D031
:102ED8000120FEBD002902D0009B002B03D18023D6
:102EE8009B006364F4E7260024494036FFF780FD21
:102EF80033780220012BECD0012131703B78292B4B
:102F080016D12000FFF774FD23681A6852040FD504
:102F18001A681B49A06B0A401A60002808D0194B90
:102F28008363FFF7B9FC002802D0A06B836B984736
:102F38002A233B702300202242331A700023636443
:102F4800236811495A680A405A60009A6562628586
:102F5800628D2285019AE2620C4A996962639A69D4
:102F6800D20303D40822114200D0DA6100252000E0
:102F780002493570FFF706FD2800AAE70280000025
:102F8800FFBFFFFFA1390008FF7FFFFF7D38000862
:102F9800020010B5413211780223202908D180217E
:102FA80026331370034B09024363FFF7EBFC00233E
:102FB800180010BD7D380008036810B599691A68B3
:102FC800436B002B00D0984710BD70477047030033
:102FD80070B500252022060042331D70013B197888
:102FE800040040361A7021290AD11123456303636E
:102FF8002039FFF7FDFC20003570FFF7E6FF70BDB4
:103008001223456303630221FFF7F2FC20003570A9
:10301800FFF7DCFFF3E700000100036810B50400C8
:1030280000201A6842310870510418D51A681849E6
:103038000A401A60230041331A78292A14D1013A28
:103048001A702123200023630121FFF7D1FC2300FC
:103058000022403320001A7004F0BAF810BD1204A0
:10306800E8D51A680B49E3E71A782A2AF6D1023A12
:103078001A702223200023630221FFF7B9FC2300E2
:103088000022403320001A7004F08CF8E6E7C046AE
:10309800FFBFFFFFFF7FFFFF0300F7B52822413383
:1030A8001B7804000168134093423CD1FE278D69C8
:1030B8008E698B68CA68ED030192C268360CED0F01
:1030C8003E40022A25D19B059A0D5B0F73401800DC
:1030D80006263040334210D1A36C0133A364A36C9D
:1030E800022B09D19B19A064CB61230040331870CF
:1030F8002900200004F00BF8F7BD80212000090208
:10310800FFF776FC2300002240331A70019A3A40F8
:10311800EEE780210902FFF76BFC23000022403311
:103128001A703200E4E70823CB610023403423708F
:10313800E2E70000184B10B5C362002302000363E6
:10314800040020204132107053700422636311423E
:1031580012D02368596A636A1970636A013363621B
:10316800238D002B08D0013B2385638D013B9BB247
:103178006385636C1A43626420000849FFF738FCD2
:10318800102223682000DA612300002240331A70DD
:1031980003F0F2FF10BDC0460000FFFF03800000EF
:1031A8007047704770470100020010B541310C7834
:1031B80000234032602C06D1403C0C70036313702E
:1031C800FFF7F0FF10BD0363137004F005F8F9E78B
:1031D80070B5050000220400413542302B7802709A
:1031E8003148283BE0626285626C0A436264022BC4
:1031F8002BD803212000FFF7FBFB28232B702B4B38
:10320800A06B6363236B00282ED01A001021113A9B
:103218008A4329D123681A68520403D51A682449B5
:103228000A401A60FFF772FB012819D0A06B214BE6
:1032380000228363230040331A70FFF72DFB002818
:1032480011D0A06B836B98470DE020001A49FFF757
:10325800CFFB2B78602B01D020232B700023CFE7E6
:103268002000FFF7A0FF70BDE06B0028F8D0102207
:10327800123B9343F4D123681A68120403D51A68E1
:103288000E490A401A60FFF741FB0128E8D0E06BBD
:10329800084B00228363230040331A70FFF7FCFABF
:1032A8000028E0D0E06BCDE70000FFFF7D38000884
:1032B800FFBFFFFFA139000803800000FF7FFFFF69
:1032C800F7B52023050006684135F3612B78040023
:1032D8000F00212B2BD10121FFF78AFB1123236338
:1032E80073682E4A13407360002363632C4BE362B8
:1032F80010231F4204D0F361626C0C3B13436364D8
:103308002B78602B05D17F0703D5736ADBB2019355
:10331800019B2000FFF712FB636C2A78602A01D01A
:10332800002B0CD02000616CFFF752FFF7BD2B7803
:10333800222BD5D10221FFF75BFB1223CFE72A7896
:10334800212A13D1013A2A70220021002363423234
:103358001078403113700B70402803D12000FFF71C
:103368001FFFE3E72000FFF730FEDFE72A78222A75
:10337800DCD1023A2A7022002100236342321078FD
:10338800403113700B70402803D12000FFF709FF6C
:10339800CCE72000FFF71AFEC8E7C04600E800FEA9
:1033A8000000FFFFF7B5070040373B7804000D0029
:1033B80016000220012B1AD001233B700F3319424B
:1033C80016D01A4214D022682000D361626C0C3BDC
:1033D80013436364FFF7B2FA20231D4205D01E424F
:1033E80003D029002000FFF76BFF00203870FEBDD6
:1033F80004231D4211D01E420FD09D4323685A6AF0
:10340800636A1A70636A01336362238D013B238503
:10341800638D013B9BB26385DEE702231D4206D024
:103428001E4204D0636A226819789162EBE7402350
:103438002A0633D51E4231D0628D2368002A21D056
:10344800208D00281ED15968638D8905890DFF2BB1
:1034580008D9FF22802322855B0400902000FFF713
:103468007BFAB9E7628DE36A92B29C46174B2285D4
:10347800D2B29C4502D0E36A0090EFE78023009027
:103488009B04EBE75B689B0103D42000FFF79FFDDB
:10349800A2E740212000FFF79BFE9DE71D429BD03D
:1034A8001E4200D198E7638D002BF2D123685A6839
:1034B800920100D590E7E16A044A9142E5D1802261
:1034C8005968D2010A435A6086E7C0460000FFFFE8
:1034D800F7B506004036337804000220012B15D0DA
:1034E800012333700F33194211D01A420FD02268CA
:1034F8002000D361626C0C3B134320216364FFF707
:1035080041FA2000FFF71AFA00203070FEBD402370
:10351800080641D51A423FD025682A689A432A608E
:10352800638D002B2CD06968638D8905890DFF2B6D
:1035380018D9FF23238580235B040020278D009062
:10354800FAB22000FFF708FA638DDB1B9BB2638594
:10355800413423782A68222B0FD180231B0213437E
:103568002B60D1E7638DE26A23851A4B9A4201D01A
:10357800E36AE2E780239B04DFE78023DB01EEE7D1
:103588006B689B0103D42000FFF721FDBCE74021B5
:103598002000FFF71DFEB7E7194212D01A4210D0DB
:1035A800638D002BF3D1226853689B01ACD4E16A88
:1035B800084B9942E7D180235168DB010B435360E4
:1035C800A2E7202319429FD01A429DD02000FFF77E
:1035D80077FE99E70000FFFF70B5802503686D004E
:1035E80099691A68294206D0140604D50124466C44
:1035F80034434464DD618025ED00294206D0140679
:1036080004D50824466C34434464DD618024A40056
:10361800214206D0120604D50222416C0A434264B4
:10362800DC610B23416C194201D0FFF7D1FD70BD5D
:10363800F7B5056806002B680091019320234136F1
:103648003778EB61183B04009F43212F4FD13F4946
:103658002000FFF7CDF9276380276B683F023B43C3
:103668006B606B683A4A200013406B60FFF766F99D
:10367800019B5B043FD52B68364A13402B60A36B34
:10368800002B03D01B685B689BB26385009B5B07BC
:1036980012D5636A6A6A1A70636A01336362238D9A
:1036A800002B05D0013B2385638D013B9BB26385CD
:1036B8000423009A9A430092638D002B03D00423BD
:1036C800626C134363642300002242331A70656CF2
:1036D8006263954218D02000616CFFF779FD33785A
:1036E800282B03D120000099FFF724FDF7BD222FD6
:1036F800B2D11949ACE7019B3B42C7D02B68174AA6
:1037080013402B60E36BBBE72700E36A144A40379A
:1037180093420CD02000FFF77FFC2023104A2000A2
:10372800E262337025633D7003F026FDDEE7202357
:1037380032782000337025633D70222A02D103F0CD
:1037480031FDD3E703F044FDD0E7C0460180000017
:1037580000E800FEFFBFFFFF02800000FF7FFFFFC1
:103768000000FFFF0300F7B5403301931B78040006
:10377800C76A0E0015000220012B51D00123019ABF
:1037880013701F33194204D01D4202D02000FFF7E6
:103798004FFF10231E4260D01D425ED0C02212028D
:1037A800154257D02200E16BA36B413200291DD18D
:1037B800002B05D06D0403D51B685B68002B21D056
:1037C80010212368D9610423616C0B43636410786A
:1037D800264BC0B21F4220D12138092833D8FCF724
:1037E8006FFC303732323232323230372804DFD58C
:1037F800096849680029DBD1002B03D06D0401D585
:103808001B685B681378282B0BD180239B049F428D
:1038180007D131002000FFF78DFC0020019B1870B4
:10382800FEBD117810222368DA612929F5D11049E3
:103838008F42F2D02000FFF781F82000FFF7ECFB61
:10384800EBE7212323632000616CFFF7C1FCE4E769
:103858002223F7E72268D361DFE708231E42DCD082
:103868001D42DAD02000FFF717FCD6E7FFFFFFFE66
:103878000000FFFF0300F7B5403301931B780400F5
:10388800C76A0D0016000220012B22D00123019ADD
:1038980013701F33194204D01E4202D02000FFF7D4
:1038A800C7FE10231D4233D01E4231D0628D002A3C
:1038B80020D1230041331A78282A0BD18022920480
:1038C800974207D129002000FFF734FC0020019B14
:1038D8001870FEBD102219782368DA612929F5D1FC
:1038E8002B498F42F2D02000FFF728F82000FFF77D
:1038F80093FBEBE72268D3610423626C1343636490
:10390800244B1F42E2D12000616CFFF761FCDDE728
:1039180004231D4219D01E4217D0638D002B0DD0F1
:1039280023685A6A636A1A70636A01336362238D73
:10393800013B2385638D013B9BB26385638D002B1F
:10394800C4D1134B9F42C1D0D0E708231D4205D0F4
:103958001E4203D02000FFF79FFBB7E702231D425A
:10396800B4D01E42B2D0638D002B0DD0636A22689A
:103978001978013391626362638D013B9BB2638561
:10398800238D013B2385A1E7024B1F429ED1ADE762
:103998000000FFFFFFFFFFFE806A10B5836B002B5E
:1039A80001D000229A63C36B002B01D000229A63D6
:1039B800FFF7F9FB10BD41300078C0B27047406C8A
:1039C8007047000010B5114C1149236802000B40E4
:1039D80003432360802300209B009A420ED10D4BA5
:1039E8000D49186806235843FCF774FB8022431CD2
:1039F800D200616908001040114200D110BD002BAF
:103A080001D0013BF5E70320F8E7C046007000400D
:103A1800FFF9FFFFB800002040420F00F0B5040096
:103A280085B0002802D1012005B0F0BD0368DB078E
:103A380010D423689B075CD423681B0700D5C1E01A
:103A480023685B0700D5F2E0E369002B00D079E139
:103A58000020E9E73822AF4DAB681340EA68102B25
:103A680009D1D3439B0708D12B689B03E1D5636831
:103A7800002BDED1D7E7082BF6D0802263685202EC
:103A8800934211D12A6813432B60FEF7E7FD802784
:103A98000600BF022B683B42CBD1FEF7DFFD801B3F
:103AA8006428F7D90320BFE7A021C9028B4208D1B7
:103AB80080232968DB020B432B602B681A432A609A
:103AC800E3E72A6894490A402A602A6893490A4029
:103AD8002A60002BD9D1FEF7C1FD80270600BF025E
:103AE8002B683B42A5D0FEF7B9FD801B6428F7D9A7
:103AF800D8E73822874DAB681340EA68102B28D1E5
:103B080003210A40022A26D12A68520503D5E26811
:103B1800002A00D187E7696862698148120201407A
:103B28000A436A60002B0CD12B687E4A7E491340F9
:103B3800226913432B602B687C4A9B045B0FDA4095
:103B48000A607B4B1868FEF741FD002800D173E737
:103B580069E7002BD8D0E368002B20D02B68714A86
:103B6800802713402269FF0013432B6080232A68B3
:103B78005B0013432B60FEF771FD06002B683B4288
:103B880007D06A68636966491B020A4013436B6081
:103B980052E7FEF763FD801B0228EFD982E72B6806
:103BA800644A802713402B60FEF758FD0600FF008B
:103BB8002B683B4200D13FE7FEF750FD801B0228EF
:103BC800F6D96FE73822534DAB681340182B08D14C
:103BD8002B6E9B0700D433E7A369002B00D02FE797
:103BE80021E7A2690123002A10D02A6E0227134375
:103BF8002B66FEF733FD06002B6E3B4200D01FE715
:103C0800FEF72CFD801B0228F6D94BE72A6E022707
:103C18009A432A66FEF722FD06002B6E3B4200D12E
:103C28000EE7FEF71BFD801B0228F6D93AE738227B
:103C3800384DAB681340202B08D1EB6D9B0700D49F
:103C480002E7A368002B00D0FEE6ECE68022002104
:103C5800EB6B52050091134208D1EB6B1343EB63F6
:103C6800EB6B13400393039B012300938027324E91
:103C78007F0033683B4215D0A368012B22D1EA6D3F
:103C88001343EB65FEF7EAFC02270600EB6D3B42A7
:103C980038D0009B012B00D0D6E6EB6B274A1340A7
:103CA800EB63D1E633683B433360FEF7D7FC019002
:103CB80033683B42E0D1FEF7D1FC019BC01A0228D1
:103CC800F6D9EFE6EA6D052B05D1013B1343EB6509
:103CD800EA6D0123D4E701218A43EA65EA6D0331DD
:103CE8008A43EA65002BCDD1FEF7B8FC022706000F
:103CF800EB6D3B42CDD0FEF7B1FC114B801B9842D7
:103D0800F6D9CFE6FEF7AAFC0D4B801B9842BDD929
:103D1800C8E6C04600100240FFFFFEFFFFFFFBFFA2
:103D2800FF80FFFFFFC7FFFFB80000200024F4005A
:103D38007C000020FFFEFFFF00700040FFFFFFEF48
:103D48008813000038213F4DAA680A40102A51D034
:103D58003D4A022B38D12B68802713402B60FEF791
:103D68007DFC0600BF042B683B4227D1616A236AA9
:103D7800EA680B43354980260A401343E26AB604D1
:103D88001343226B1343A26A12021343EB6080238E
:103D98002A685B0413432B608023EA685B0513439E
:103DA800EB60FEF75BFC04002B68334200D04FE663
:103DB800FEF754FC001B0228F6D973E6FEF74EFC0A
:103DC800801B0228CFD96DE62B68802613402B6014
:103DD800FEF744FC0400B6042B68334204D1EB68B8
:103DE8001B4A1340EB6033E6FEF738FC001B022841
:103DF800F2D957E6012B00D115E60322E868216ABB
:103E080002408A4200D00EE67022616A02408A426D
:103E180000D008E6FE21A26AC901014012029142BF
:103E280000D000E6F822E16A920302408A4200D0FC
:103E3800F9E5236B400F4007C01A431E9841C0B2F2
:103E4800F2E5C04600100240FFFFFFFE8C80C11F54
:103E5800FCFFFEEF382370B51D4CA2681A4205D14D
:103E680023681C489B045B0FD84070BDA2681A40A9
:103E7800082A27D0A2681A40102A17D1E368E168F7
:103E8800DB43E5684906490F6F322D0A01311540B9
:103E98009B0709D11048FCF71DF9E1686843490FF1
:103EA8000131FCF717F9E0E70A48F4E7A2681A407D
:103EB800202A09D0A26800201340182BD5D1FA2057
:103EC800C001D2E70448D0E780200002CDE7C04611
:103ED800001002400024F40000127A00F7B5040034
:103EE8000D00002801D10120FEBD07274A4E336886
:103EF8003B408B422AD3226893073BD4D20748D44D
:103F0800072733683B40AB420AD93368BB432B438E
:103F18003360FEF7A3FB019033683B40AB426BD1A3
:103F280023683E4D5B076FD4FFF794FFAB683C49AD
:103F38001B051B0F9B005B581F210B40D840394ABB
:103F4800394B10601868FEF741FBCDE73368BB4377
:103F58000B433360FEF782FB019033683B40AB4272
:103F6800C9D0FEF77BFB019BC01A304B9842F4D9AD
:103F78000320B9E72949530704D5E0238868DB0102
:103F880003438B608B682A480340A06803438B6017
:103F9800B4E76268214F012A19D13B689B03A2D577
:103FA8000721BB688B431343BB60FEF757FB0190A7
:103FB8003823BA681A406368DB009A42A0D0FEF73B
:103FC8004DFB019BC01A194B9842F1D9D0E7022A40
:103FD80003D13B689B01E3D485E7002A03D13B6802
:103FE8005B05DDD47FE70223032A03D1396E19422A
:103FF800D6D178E7F96DFAE7FEF730FB019BC01AD6
:104008000A4B984288D9B3E7AB680A4A1340E2687A
:104018001343AB6088E7C04600200240001002400E
:1040280060890008B80000207C0000208813000088
:10403800FFF0FFFFFF8FFFFF064B07499B68074A0A
:104048005B045B0F9B005B581F2110680B40D84036
:104058007047C0460010024040890008B8000020A0
:10406800072230B5F025094B02609C682D011440E9
:1040780044609C682C408460E0249B68E4012340F1
:10408800C360034B1B6813400B6030BD0010024037
:1040980000200240802370B59B020500674C9842BF
:1040A80024D1C022E36D92001340E26D920704D53B
:1040B80080225200934200D1B8E0226E920704D5C4
:1040C80080229200934200D1B3E021688022080048
:1040D8009202104011422AD0594A5A489B185A1E37
:1040E80093415B421840584BC01820E00322E36814
:1040F8001340022B1CD0E06810400338431E98413F
:10410800524B40421840524BC018E1684906490FCB
:104118000131FBF7DFFF802302001B019D4200D124
:104128006AE007D8012D29D0202D4AD0002070BD83
:104138004848EAE78023DB019D42F7D1636D9B0F76
:104148009907002B25D080231B06994274D0802321
:104158000020DB059942EAD1E168802308005B0270
:1041680018401942E3D0E068E16840048902400E33
:10417800C90E50430131FBF7ADFFD8E7616D03224B
:104188000B001340114202D1FFF756FFCFE7012B76
:1041980002D1FFF75FFECAE72268520506D5022B57
:1041A8004AD0E06D40082840C003C0E7E16D022214
:1041B800080010401142BAD0033B5A425341D80379
:1041C800B5E7616DC0220B00920113401142DBD0AC
:1041D800802252019342DCD0216880220800D2005C
:1041E80010401142A3D01C4A1C489B185A1E9341E8
:1041F8005B421840174B77E7C021636D09020B40FB
:104208008021C9018B42A7D0002BC2D02268520559
:1042180003D58022120293420ED0114A9818431EE9
:104228009841104B404218400F4B5DE78020000238
:104238007DE7FA20C0017AE7064878E700100240D7
:1042480000FDFFFF702FFCFF90D0030000EE85FFFC
:1042580000127A000024F40000E0FFFF00DC0BFFEE
:104268000040FFFF8044FFFF80BB00007047000054
:10427800F8B504000120002C66D0636A002B64D1D5
:10428800822261685200914200D0E3610023250038
:10429800A3625D352B78DAB2002B05D123005C339D
:1042A80020001A70FFF7E2FF022340222B702168DA
:1042B800E6680B689343E0220B60D2000023964225
:1042C80047D880204001964200D0A36282228427EA
:1042D800636852001340A2683F023A400227134322
:1042E8002269A5693A4013430122676917403B4395
:1042F8008027BF002F403B43E769373217403B43D5
:10430800276A4832174080223B43A76A9201174028
:104318003B43102708220B60636A2D0C3B40676BF8
:1043280017403B43F0273F013E40334304263540C6
:104338002B4303434B60CB69084803400020CB6103
:10434800012320665D342370F8BD00232361636177
:104358009CE7F02218001201B5E7C046FFF7FFFFFF
:1043680001000300012010B53D310C78E2B284420F
:1043780015D1001808701B680A498B4202D00A49F7
:104388008B420DD19A6809490A40062A06D0073996
:104398008A4203D0012219680A431A60002010BD1E
:1043A8001968F9E7002C01400004004007000100EB
:1043B8000368084A196A114207D1196A064A114264
:1043C80003D101211A688A431A6001233D30037022
:1043D800002070471111000044040000020030B5AD
:1043E80002243C32157803002000012D08D0180063
:1043F8003D3004701B685961012303700020107060
:1044080030BD7047704700000222036810B5196973
:10441800040011420ED0D96811420BD0053A1A6136
:10442800043202779B699B0700D186E001F00EFCFD
:1044380000232377042223681969114211D0D9680F
:1044480011420ED0093A1A61073222779A69C023BD
:104458009B0020001A4200D175E001F0F7FB002311
:10446800237708222368196911420ED0D9681142AE
:104478000BD0113A1A610D322277DB6920009B07B5
:1044880067D001F0E3FB0023237710222368196922
:10449800114210D0D96811420DD0213A1A6119324F
:1044A8002277DA69C0239B0020001A4257D001F016
:1044B800CDFB00232377012223681969114207D015
:1044C800D968114204D0033A20001A6101F093FB25
:1044D800802223681969114208D0D968114205D091
:1044E800023AFF3A20001A6100F0E1F923681A69DC
:1044F800D20507D5DA68120604D51C4A20001A61CD
:1045080000F0D6F9402223681969114207D0D9680A
:10451800114204D0813A20001A61FFF773FF20226C
:1045280023681969114207D0D968114204D0413A69
:1045380020001A6100F0BAF910BD01F083FB2000D9
:10454800FFF75FFF74E701F07DFB2000FFF759FFDD
:1045580085E701F077FB2000FFF753FF93E701F0B1
:1045680071FB2000FFF74DFFA3E7C046FFFEFFFFEA
:1045780010B5174C0368A04202D0164A904208D1E1
:10458800702293434A681343134A1A40CB68134373
:1045980008E0124A9042F7D0114A9042F4D0114AEA
:1045A8009042F1D0802293434A69134303608B6899
:1045B800C3620B688362A04205D0094B984202D0BF
:1045C800084B984201D10B6903630123436110BD75
:1045D800002C014000040040FFFCFFFF00200040C9
:1045E800004401400048014070B504000120002C3F
:1045F80023D025003D352B78DAB2002B05D12300D6
:104608003C3320001A7001F0CDFE02232B70206885
:10461800211DFFF7ADFF220001230020483213704F
:1046280047340A3A137053709370D37013715371EF
:104638009371D371137223702B7070BD1F2310B543
:10464800012419408C408A40036AA3430362036A29
:104658001A43026210BD0000030010B508291ED0DD
:1046680005D8002911D0042916D0020004E0020060
:104678000C2917D0102917D0012043321278824212
:1046880009D11A000220433211E002003E32012013
:10469800147884420AD010BD02003F32F7E70200C6
:1046A8004032F4E74132F2E74232F0E7022010707C
:1046B8001C6801222000FFF7C1FF134B9C4213D056
:1046C800124B9C420AD0124B9C4207D0114B9C4281
:1046D8000FD0012322681343236012E08023626C09
:1046E8001B0213436364F4E78023626C1B021343C9
:1046F8006364A368084A1340062B02D0073A934222
:10470800E7D10020C7E7C046002C01400044014023
:1047180000480140000400400700010010B5FFF701
:104728009BFF10BD030070B508294DD009D800299A
:104738001BD0042941D00200433214780432E0B27D
:1047480008E0020047320C2945D0102954D04330E4
:104758000478E0B21278D2B2012C50D1012A2BD1C0
:104768001A0002204332107041E005001C003E355B
:104778002E784434F0B22278D2B2012E3FD1012AE9
:104788001AD102222A7022701C6801222000FFF729
:1047980055FF1C4B9C4202D01B4B9C4207D1A3687F
:1047A8001A4A1340062B06D0073A934203D0012336
:1047B800226813432360002070BD05001C003F35AC
:1047C8002E784534F0B2D6E705001C0040352E7827
:1047D8004634F0B2CFE70400413425781278E8B2C5
:1047E800D2B2012D0BD1012AE6D1022222701A0081
:1047F800022047321070C7E704004234EDE7012079
:10480800DAE7C046002C0140000400400700010020
:104818001F2310B5042419408C408A40036AA3431F
:104828000362036A1A43026210BD0000030002001B
:1048380010B5002905D144320120147884420AD0E9
:1048480010BD042901D14532F6E7082901D04732C5
:10485800F2E74632F0E7022010701C6804222000BC
:10486800FFF7D6FF8023626C1B02134363640A4B75
:104878009C4202D0094B9C4207D1A368084A1340C6
:10488800062B06D0073A934203D00123226813432C
:1048980023600020D4E7C046002C014000040040FB
:1048A8000700010010B5FFF7C1FF10BD7047704742
:1048B8007047000030B5EFF31084012282F31088AE
:1048C8000168134D0B682B400B6084F31088EFF3DD
:1048D800108182F3108802680E4C9368234093601D
:1048E80081F31088C36E012B0AD1EFF3108183F393
:1048F8001088102402681368A343136081F310889A
:10490800030020228C331A600023C366436730BD3E
:10491800DFFEFFFFFEFFFFEF30B5EFF3108401224B
:1049280082F31088802501680B68AB430B6084F321
:104938001088EFF3108182F3108840230268106812
:104948000343136081F3108830BD030088331B686C
:1049580010B5212B06D1020056321388002B02D144
:10496800FFF7DAFF10BD036D01681C7801338C6214
:1049780003651388013B9BB21380F3E70300883378
:104988001B6810B5212B06D1010056310B88002B6E
:1049980002D1FFF7C1FF10BD026D0468138802320F
:1049A800DB05DB0DA36202650B88013B9BB20B8024
:1049B800F1E70000030088331B6870B5212B21D173
:1049C8000300010080246A331B885631002B19D05C
:1049D8000A88002A17D1EFF31084013282F3108875
:1049E8000168114D8B682B408B6084F31088EFF3BE
:1049F800108182F310884023026810680343136013
:104A080081F3108870BD0568EA69224208D0026DFA
:104A180016780132AE6202650A88013A92B20A80BB
:104A2800013B9BB2D2E7C046FFFF7FFF03008833FC
:104A38001B6870B5212B21D10300010080246A3343
:104A48001B885631002B19D00A88002A17D1EFF39A
:104A58001084013282F310880168124D8B682B4054
:104A68008B6084F31088EFF3108182F31088402361
:104A7800026810680343136081F3108870BD0668EC
:104A8800F26922420AD0056D2A880235D205D20D74
:104A9800B26205650A88013A92B20A80013B9BB26C
:104AA800D0E7C046FFFF7FFF30B5050088352C688A
:104AB80003000220202C37D10138002934D0002AE5
:104AC80032D080209C684001844205D118690028B2
:104AD80002D10130014227D11965190054310A80E9
:104AE8004A801A00002190321160212280212A6018
:104AF8008022586E92054901904216D1144A8C4280
:104B080003D11969002900D1124A9A67EFF310817D
:104B1800012282F310881A68802390681B040343DB
:104B2800936081F31088002030BD0B4A8C4203D17A
:104B38001969002900D1094A9A67EFF31081012207
:104B480082F310881A688023106803431360E8E72B
:104B5800BD490008354A000853490008854900083E
:104B6800806A0023020010B55E321380083A138071
:104B780001F0BCFC10BD7047F7B50168C14DCB69A9
:104B880004000A6888682B4210D120252B4200D1E6
:104B98009BE08026760515400640354300D194E019
:104BA800636F2000002B00D085E085E0B64D0540FE
:104BB8000095B64D009E1540354300D185E025008F
:104BC80001269035334205D0D70503D50E622F68EC
:104BD8003E432E60022633420CD0C7070AD5270071
:104BE8000E6290373E680197B446042667463E43F6
:104BF800019F3E60042633420CD0C7070AD5270020
:104C08000E6290373E680197B446022667463E43D7
:104C1800019F3E600826B446334209D02027009EF3
:104C28001740374304D066460E622F683E432E6015
:104C380080263601334206D0570104D50E62202162
:104C48002E68314329602968002935D020210B427C
:104C58000AD080235B0511400340194304D0636FD9
:104C6800002B01D02000984722682B6840279668BF
:104C780028223E40134020001E4322D0FFF71AFE90
:104C880023689B683B4218D0EFF31081012383F31C
:104C98001088250004CD9368BB43936081F3108886
:104CA800E86F002809D07A4B8363FDF7F5FD0028EB
:104CB80002D0E86F836B9847F7BD200001F016FC1F
:104CC800FAE701F013FC2E60F6E7E56E012D00D03F
:104CD8009FE01026334200D19BE0324200D198E099
:104CE8000E62896840230A001A40194257D0211DD4
:104CF800CA6F1068426892B2002ADDD027005C377C
:104D08003F889742D8D927005E373A80026820202A
:104D18008446104000906046024232D1EFF310877B
:104D280085F3108820685B4E02683240026087F382
:104D38001088EFF3108785F3108820688268AA43EB
:104D4800826087F31088EFF3108785F31088206856
:104D580082689A43826087F31088230062468C3306
:104D68001A60009BE366EFF3108085F310882268D1
:104D78000F351368AB43136080F31088C86FFDF7D5
:104D880051FD02232200236723005C325E331B8817
:104D98001188C91A89B22000FFF7EDFE8CE72300BD
:104DA80020005C335E301988038800889BB2002895
:104DB80000D181E7C91A89B2002900D17CE7EFF355
:104DC800108785F310882068334E036833400360EA
:104DD80087F31088EFF3108785F3108820682F4E2B
:104DE80083683340836087F31088230020208C3346
:104DF8001860E2666267EFF3108085F3108810256B
:104E080022681368AB43136080F31088022323677A
:104E1800C1E780256D032B4206D0460204D5200049
:104E28000D6201F09FFB47E780210B4207D08025E8
:104E38002D0411402840014301D0A36FB1E6402161
:104E48000B4216D00A4214D0EFF31080012383F3EB
:104E58001088226813688B43136080F3108823003E
:104E6800202288331A6000232000A36701F037FB53
:104E780022E7190214D5510012D5200000F09BFB3F
:104E88001AE7C0460F0800000100001020010004C6
:104E9800694B0008FFFEFFFFDFFEFFFFFEFFFFEF8D
:104EA800DB0100D408E7002A00DB05E7200000F05A
:104EB80081FB01E70100F8B503008C310C68603311
:104EC8001A880368222C47D15B6A846D134002005C
:104ED8002370836D5E32013383651388013B9BB277
:104EE8001380128893B2002A32D1EFF3108601247E
:104EF80084F3108805681B4F2A683A402A6086F3B5
:104F08001088EFF3108684F310880568AA68A24316
:104F1800AA6086F3108820220A600367C26E43677E
:104F2800A24216D1C366EFF3108482F310881023CF
:104F380001680A689A430A6084F310880268D16994
:104F4800194200D0136203005C331988FFF713FE7F
:104F5800F8BD01F0BDFAFBE7082299690A439A6196
:104F6800F6E7C046DFFEFFFF0200F8B503008C320B
:104F7800116860331C880368222946D1596A836DF9
:104F8800214019800100023383655E310B88013BA3
:104F98009BB20B8009888BB2002932D1EFF31086BF
:104FA800012484F3108805681A4F2968394029605C
:104FB80086F31088EFF3108684F310880568A968D3
:104FC800A143A96086F31088202111600367C26E8F
:104FD8004367A24216D1C366EFF3108482F31088A8
:104FE800102301680A689A430A6084F310880268EB
:104FF800D169194200D0136203005C331988FFF7A6
:10500800BAFDF8BD01F064FAFBE7082299690A4382
:105018009A61F6E7DFFEFFFF0300F0B560331B88F7
:1050280085B0029303680400DD691A6803929A68E0
:10503800019202008C321268222A00D0B2E00300EA
:1050480068331B88002B02D020231D4225D1230062
:105058005E331B889AB2002B1DD0230068331B884F
:10506800934218D9EFF31080012282F31088216847
:105078004F4D8B682B408B6080F310884D4B6367D6
:10508800EFF3108182F3108820232268106803430D
:10509800136081F3108805B0F0BD260023680299DB
:1050A8005B6AA26D0B401370A36D5E360133A36576
:1050B80033882268013B9BB233800723D5691D42A0
:1050C8002FD0063B1D4208D00399C90505D52100FC
:1050D80013629031086803430B6002231D4209D014
:1050E8000199C90706D52100136290310868DB18B9
:1050F80003430B6004231D4209D00199C90706D553
:105108001362220090321168023B0B4313602700A0
:1051180090373B68002B04D0200001F0E7F900230A
:105128003B60328893B2002A00D08DE7EFF31086F7
:10513800012181F3108820681F4F02683A400260FD
:1051480086F31088EFF3108081F3108821681B4ED6
:105158008A6832408A6080F31088220020218C32CD
:1051680011602367E26E6367012A17D1E366EFF3E4
:10517800108082F31088102321680A689A430A6015
:1051880080F310882268D169194200D01362230085
:105198005C3320001988FFF7EEFC55E7200001F08A
:1051A80097F951E7082299690A439A6173E7C0465B
:1051B800FFFFFFEFBD4E0008FFFEFFFFFEFFFFEF02
:1051C8000300F0B560331B8885B0029303680400C0
:1051D800DD691A6803929A68019202008C3212689B
:1051E800222A00D0B0E0030068331B88002B02D0CD
:1051F80020231D4225D123005E331B889AB2002B41
:105208001DD0230068331B88934218D9EFF3108010
:10521800012282F3108821684E4D8B682B408B60E9
:1052280080F310884C4B6367EFF3108182F310888A
:105238002023226810680343136081F3108805B0A7
:10524800F0BD260023680298596AA26D01401180BA
:105258000232A2655E363288013A92B23280072263
:10526800DD6915422FD0063A154208D00399C905C1
:1052780005D521001A629031086802430A600222AB
:10528800154209D00199C90706D521001A62903143
:105298000868921802430A600422154209D001994D
:1052A800C90706D51A6222000223903211680B43FF
:1052B8001360270090373B68002B04D0200001F0D2
:1052C80015F900233B60328893B2002A00D08FE79B
:1052D800EFF31086012181F3108820681F4F0268C0
:1052E8003A40026086F31088EFF3108081F310884B
:1052F80021681B4E8A6832408A6080F31088220039
:1053080020218C3211602367E26E6367012A17D16E
:10531800E366EFF3108082F31088102321680A688F
:105328009A430A6080F310882268D169194200D034
:10533800136223005C3320001988FFF71CFC57E731
:10534800200001F0C5F853E7082299690A439A61D9
:1053580075E7C046FFFFFFEF714F0008FFFEFFFF34
:10536800FEFFFFEF0200F0B584321178030002203F
:1053780001291FD01C0001218834223011702060BF
:10538800EFF3108681F310880C271D682868B8434E
:10539800286086F31088EFF3108081F3108819686D
:1053A80008230D682B430B6080F31088202300200E
:1053B80023601070F0BD0200F0B58432117803004C
:1053C800022001291FD01C000121883422301170CD
:1053D8002060EFF3108681F310880C271D68286879
:1053E800B843286086F31088EFF3108081F31088A3
:1053F800196804230D682B430B6080F31088202361
:10540800002023601070F0BD030088338C301B68C7
:10541800006818437047000003005C3370B581656D
:1054280080241A805A800023816843676401A1425E
:105438003FD10369591E8B41FF215B428B43414990
:105448005B18010060310B80030000219033196064
:105458002231043B1960EFF31084012383F3108891
:1054680001688D682B438B6084F310888025802128
:10547800466E84680369AD054901AE423FD1050017
:1054880068352D8895423AD88C4233D1002B22D1E9
:105498002D4B4367EFF31081012383F3108880239A
:1054A80002685B0590680343936081F310880020CD
:1054B80070BD002905D101697F230029C1D180333E
:1054C800BFE780246405A142BBD101693F230029BD
:1054D800B7D14033B5E71D4B4367EFF31081012384
:1054E80083F310880268FF3314682343136081F341
:1054F8001088CFE7154A4267002BCBD0EDE78C42E6
:105508001AD1002B0AD1124B4367EFF31081012304
:1055180083F3108802681F3310680AE00D4B436755
:10552800EFF31081012383F3108802682033106899
:10553800FF3303431360B8E7064A4267002BEFD1F5
:10554800E3E7C046FF010000C951000821500008E8
:10555800714F0008BD4E000803008C3070B5046818
:105568000220202C25D10138002922D0002A20D061
:1055780080209C684001844205D11869002802D126
:105588000130014215D10020D86618684068000231
:105598000CD5EFF31085012080F3108880201C685B
:1055A800C00426683043206085F310881800FFF790
:1055B80033FF70BD70477047836810B50400002B37
:1055C80005D00322010098470023A360E36010BDC3
:1055D800836810B50400002B02D00322010098470D
:1055E800200010BD70B50125022104000369DA68A6
:1055F800AA43DA60DA688A43DA60DA6849188A43C3
:10560800DA60DA6804318A43DA60DA6808318A4392
:10561800DA604018FEF7CCFE22691368AB431360CA
:10562800230057344E331D705D709D70DD701D7101
:105638005D719D71DD711D72257070BD4B1E032B50
:1056480002D888000438704701204042FBE7000078
:105658000139435C002B05D0054B022905D90120EF
:10566800404204E00329FAD8024B4900C85A70475F
:10567800F8880008F08800080139032902D8034B8C
:10568800585C704701204042FBE7C046EC880008A0
:105698000139032902D8034B58567047012040426C
:1056A800FBE7C046E8880008F7B504000E00FFF7DE
:1056B800C5FF0500431C00D1FEE731002000FFF7BD
:1056C800DBFF03000190013300D1FEE73100200029
:1056D800FFF7BEFF013000D1FEE737016437E71955
:1056E800BB68002B07D0019B2269DB431361D36899
:1056F80001990B43D360731E5A00A21890880C2896
:1057080010D8FAF7DDFC4444131313070713133EAC
:105718003E3E1F002000E35C29001030002B02D021
:10572800FFF7C0F8F7BDFEF7F9FFFBE72000E35CE1
:1057380029001030002B02D0FFF778F8F2E7FEF7C7
:105748008BFFEFE7200029001030FEF7EBFF310058
:105758002000FFF79DFF010006002000FFF778FFFB
:1057680025692B6A1843BB682862002BDAD0310000
:105778002000FFF781FFC3432B61EB681843E86003
:10578800D0E7200029001030FEF7CCFFCAE72369D4
:105798001B68DB07C6D420001030FEF7E1FDC1E727
:1057A800C36E10B50400002B0AD0022203695242CE
:1057B8001A61D96803320A43DA601030FEF7D0FD67
:1057C80020000121FFF770FF20000221FFF76CFF86
:1057D80020000321FFF768FF04212000FFF764FF82
:1057E80010BD0121026910B5D36864308B43D360C2
:1057F800FFF7E2FE10BD10B501211030FEF7EEFDF7
:1058080010BD0369186801231840704770B505007A
:105818000C00FFF7F6FF00280FD10126E36833429A
:105828000CD0E3682800B343E360FFF7E4FF0223EA
:105838005B422361E3681E43E66070BD2800FFF702
:10584800DAFFFAE70B0010B50169013B8B62FFF73D
:10585800DDFF10BD0D4A03000020934214D00C4A0E
:105868000130934210D00B4A013093420CD00A4ABF
:105878000130934208D0094A9B185A425341584272
:10588800074B1840074BC0187047C046002C014012
:1058980000040040002000400044014000B8FEBF62
:1058A8000500FFFFFFFF000070B504000069FFF767
:1058B800D1FF05002000103000F0E4FC0022084B66
:1058C800AD00EA5026002500E260B4356436B542E2
:1058D80004D0103D2800FFF77BFEF8E7200070BDDC
:1058E80040040020F8B5040008000E00FFF7B2FFDE
:1058F800224FB84200D1FEE72569002D00D0FEE70F
:1059080022001F4B0C328000C25023002C3326612A
:105918001D702600203325636563A563E563256450
:105928006564A5641D705D7003231036E36530005F
:105938002566E46000F052FC20006430FFF73CFE6E
:1059480020007430FFF738FE20008430FFF734FE63
:1059580020009430FFF730FE2000A430FFF72CFE23
:105968008023300025606560A5606561E761A561F9
:1059780025626562A362FEF737FEF8BDFFFF0000EF
:105988004004002010B586B004001022002102A8AF
:1059980002F0CBFD002302A801A90193FEF760FBEA
:1059A800206900F024FD012815D1059CFEF744FB71
:1059B800C023DB019C4206D007D88022064BD201C7
:1059C8002340934205D1400003E0E023DB019C42E1
:1059D800F9D006B010BDFEE7FFEFFFFF70B5050078
:1059E8000C00012A0CD0022A18D023005A1E934119
:1059F8002969E41A2800CC62EC61FFF707FF70BD43
:105A0800FFF7C0FF0849FAF765FB60432B69010CF3
:105A180099620131FAF75EFB0400E6E7FFF7B2FF8F
:105A28002100FAF757FBF1E740420F00036970B510
:105A38009E6A05000C000136012A04D0022A0DD006
:105A48002B695C6270BDFFF79DFF0749FAF742FBBF
:105A580031006043FAF73EFB0400F1E7FFF792FFDD
:105A680021007143F6E7C04640420F00044B10B5D1
:105A78001868002802D00430FEF7C6FC10BDC046E6
:105A88004004002010B5FFF7F1FF10BD044B10B51E
:105A98005868002802D00430FEF7B6FC10BDC04696
:105AA80040040020044B10B59868002802D0043048
:105AB800FEF7AAFC10BDC04640040020044B10B5F8
:105AC800D868002802D00430FEF79EFC10BDC046FE
